:060000000A128A11122809
:10000800FE00030EF0000408F1000A08F200831253
:1000180003137F08F3000A128A15A6290A128A1107
:100028001528831603130A128A15A4200A128A11A6
:10003800E4000A128A15A5200A128A11E5000A129C
:100048008A15A6200A128A11E6000A128A15A72024
:100058000A128A11E700831203130A128A15A820CC
:100068000A128A11D2000A128A15A9200A128A11C4
:10007800D3000A128A15AA200A128A11D4000A1279
:100088008A15AB200A128A11D50083179030840094
:10009800E3300A128A15C9200A128A118313A03084
:1000A8008400E4300A128A15C920D601D701D80184
:1000B800F601F701F801F90183010A128A1164288F
:1000C8007030831603138F04811281110108F839E7
:1000D800023881008312031381018B170B178B16CB
:1000E8000B11831603178801890188140A128A15CF
:1000F800A6230A128A110A128A15BA200A128A112C
:100108000A128A1588260A128A110A128A11F427F5
:100118000A128A110A128A15F9200A128A11000095
:10012800043083120313CD004D08AF00E4300A12E7
:100138008A1528210A128A11000083120313D1019B
:1001480004305102031816295108E43E8400831331
:100158000008093E84008317000803190E29510876
:10016800E43E8400831300080A3E840083170008D5
:10017800031D032901300A128A1531220A128A1135
:10018800831203135108031DDE285108523E8400D0
:1001980083130008063E84000008031DDE28530868
:1001A800CD004D08A00052080A128A11B6260A127C
:1001B8008A11FE280330831203135106031DF22807
:1001C8005803031DF2285108523E84008313000887
:1001D8000A128A15DD240A128A11FE2883120313D3
:1001E8005108523E8400831300080A128A153A27E0
:1001F8000A128A110A128A155E210A128A118312BA
:1002080003135108E43E840083130008093E840068
:10021800831780010130CD004D08D1070430510209
:10022800031CA8280000831603172108031D78293A
:10023800260983120313CD00831603172709831297
:100248000313CE0083160317280983120313CF0064
:1002580083160317290983120313D000CD0A031943
:10026800CE0A0319CF0A0319D00A0A128A15E42004
:100278000A128A11831203132008CD0721080318D4
:10028800210F47294829CE0722080318220F4D2994
:100298004E29CF0723080318230AD0075008031D47
:1002A80062294F08031D622913304E02031D60297D
:1002B80088304D02031D6029031C78290A128A150B
:1002C8005E210A128A11831203135808031D6E292E
:1002D80001306F2900300A128A15D1200A128A11BA
:1002E80083160317A101A10A00008316031320082F
:1002F8000319C829210983120313CD008316031398
:10030800220983120313CE008316031323098312D1
:100318000313CF0083160313240983120313D00099
:10032800CD0A0319CE0A0319CF0A0319D00A0A12F3
:100338008A15E4200A128A11831203132008CD07B4
:1003480021080318210FA929AA29CE072208031872
:10035800220FAF29B029CF0723080318230AD00793
:100368005008031DC3294F08031DC3294E08031D48
:10037800C32932304D02031DC129031CC8290A12A2
:100388008A15B3200A128A11000083160313250860
:1003980003191A2A260983120313CD00831603139F
:1003A800270983120313CE00831603132809831227
:1003B8000313CF0083160313290983120313D000F4
:1003C800CD0A0319CE0A0319CF0A0319D00A0A1253
:1003D8008A15E4200A128A11831203132008CD0714
:1003E80021080318210FF929FA29CE072208031832
:1003F800220FFF29002ACF0723080318230AD00752
:100408005008031D142A4F08031D142A13304E02E6
:10041800031D122A88304D02031D122A031C1A2AB2
:1004280000300A128A1531220A128A11000083123A
:1004380003135508063E8400831300080319752A20
:100448005803031D752A831603132A0983120313FD
:10045800CD00831603132B0983120313CE008316D2
:1004680003132C0983120313CF00831603132D09DA
:1004780083120313D000CD0A0319CE0A0319CF0A39
:100488000319D00A0A128A15E4200A128A11831263
:1004980003132008CD0721080318210F542A552AD1
:1004A800CE0722080318220F5A2A5B2ACF072308EF
:1004B8000318230AD0075008031D6F2A4F08031D8D
:1004C8006F2A03304E02031D6D2AE8304D02031DCA
:1004D8006D2A031C752A55080A128A1504240A1263
:1004E8008A1100000A128A15A0200A128A11003AFD
:1004F80003193A2B0A128A15C1200A128A1183128B
:100508000313CD0024304D0203188C2A0A308E2A9A
:1005180064308312CD004D0883160313AF002F08F3
:1005280030060319992AB601B60A3608031D2B2B83
:10053800352B0A128A15E4200A128A118312031332
:10054800230883160313B5008312031322088316A6
:100558000313B40083120313210883160313B30093
:1005680083120313200883160313B200B101B10AE2
:10057800352B320983120313CD0083160313330975
:1005880083120313CE008316031334098312031353
:10059800CF0083160313350983120313D000CD0A45
:1005A8000319CE0A0319CF0A0319D00A0A128A15A9
:1005B800E4200A128A11831203132008CD072108A8
:1005C8000318210FE82AE92ACE0722080318220F68
:1005D800EE2AEF2ACF0723080318230AD00750086A
:1005E800031D032B4F08031D032B0B304E02031D65
:1005F800012BB8304D02031D012B031C352B83162C
:1006080003132F0830060319352B2F088312031301
:10061800CD004D0883160313B000B101B6012F08B1
:1006280083120313CD004D0883160313AE0025086B
:100638000319352B2E0883120313CD004D08BB0078
:10064800B8300A128A15F0250A128A11352B83163A
:1006580003133108003A03199D2A013A0319BD2AE8
:10066800352B0A128A15AC200A128A110000B830FC
:100678000A128A1142230A128A119428F500750871
:100688000E3E8400831300080319872B7508093E62
:1006980084000008031D872B013083120313A80070
:1006A8007508023E8400000A5B2B0310A80DFF3E6C
:1006B800031D592B2808FF3AA9002908F4007508DA
:1006C80084000008A800840A0008A90028088400FB
:1006D8008317291C831300087405AA007508840071
:1006E80083130008AB00840A0008AC002B088400C0
:1006F80083172C1C83132A08800075080E3E84007B
:1007080083138001080075080E3E84000008031951
:10071800CA2B7508093E840064300006031DCA2BE5
:10072800013083120313A8007508023E8400000AF2
:100738009F2B0310A80DFF3E031D9D2B2808A90021
:100748002908F400750884000008A800840A000835
:10075800A900280884008317291C8313000874043F
:10076800AA007508840083130008AB00840A0008F7
:10077800AC002B08840083172C1C83132A088000E4
:1007880075080E3E840083138001080075080F3E2B
:100798008400000803196D2C7508053E84000008C4
:1007A80083120313A800840A0008A9002808AA00D5
:1007B8002908AB00AC01AD0175080A3E84000008A9
:1007C800AE00840A0008AF00840A0008B000840A5A
:1007D8000008B100AE09AF09B009B109AE0A0319A2
:1007E800AF0A0319B00A0319B10A0A128A15E420DC
:1007F8000A128A11831203132008AE07210803186E
:10080800210F072C082CAF0722080318220F0D2CE4
:100818000E2CB00723080318230AB1072D0831024C
:10082800031D202C2C083002031D202C2B082F021E
:10083800031D202C2A082E02031C08000A128A1500
:10084800E4200A128A1175080A3E840083120313F1
:10085800200883138000840A21088000840A220863
:100868008000840A230880000130A8007508023E31
:100878008400000A412C0310A80DFF3E031D3F2CE5
:100888002808FF3AA9002908F40075088400000820
:10089800A800840A0008A900280884008317291CD6
:1008A800831300087405AA007508840083130008E0
:1008B800AB00840A0008AC002B08840083172C1CAA
:1008C80083132A08800075080F3E84008313800173
:1008D80008007508073E8400000883120313A80067
:1008E800840A0008A9002808AA002908AB00AC015E
:1008F800AD0175080A3E84000008AE00840A0008AD
:10090800AF00840A0008B000840A0008B100AE09EC
:10091800AF09B009B109AE0A0319AF0A0319B00A41
:100928000319B10A0A128A15E4200A128A118312DD
:1009380003132008AE0721080318210FA42CA52CA7
:10094800AF0722080318220FAA2CAB2CB0072308E4
:100958000318230AB1072D083102031DBD2C2C08EA
:100968003002031DBD2C2B082F02031DBD2C2A08A5
:100978002E02031C08000A128A15E4200A128A11A2
:1009880075080A3E8400831203132008831380002D
:10099800840A21088000840A22088000840A230827
:1009A80080000130A8007508023E8400000ADE2C91
:1009B8000310A80DFF3E031DDC2C2808A9002908F8
:1009C800F400750884000008A800840A0008A9003B
:1009D800280884008317291C831300087404AA00BC
:1009E8007508840083130008AB00840A0008AC0073
:1009F8002B08840083172C1C83132A088000750891
:100A08000F3E840083138001800A080083120313B9
:100A1800AE000130A8002E08023E84008317000AA9
:100A2800172D0310A80DFF3E031D152D2808A9003A
:100A38002908AC002E0884000008A800840A0008D1
:100A4800A900280884008317291C831300082C0593
:100A5800AA002A08AD00D62D2E08083E8400831768
:100A680000082D06031908000A128A15E4208312CB
:100A780003132E08043E8400200883178000840A8C
:100A880021088000840A22088000840A2308800044
:100A98002E08033E84008001800A08002E08043EC8
:100AA80084000008A800840A0008A900840A000835
:100AB800AA00840A0008AB00A809A909AA09AB0979
:100AC800A80A0319A90A0319AA0A0319AB0A0A12E0
:100AD8008A15E4200A128A11831203132008A80732
:100AE80021080318210F792D7A2DA9072208031848
:100AF800220F7F2D802DAA0723080318230AAB078E
:100B08002B08031D932D2A08031D932D2908031D67
:100B1800932D1E302802031D912D031C08002E085A
:100B2800083E8400831700082D060319D12D2D08CF
:100B3800A8002E08083E8400280880002E08093ED8
:100B480084008001800A2D080319B92D2E080A3E59
:100B580084008001800A0A128A15E4200A128A1188
:100B6800831203132E080B3EC42D2E080A3E840060
:100B780080010A128A15E420831203132E080F3EFF
:100B88008400200883178000840A21088000840AD2
:100B980022088000840A230880002E08033E84006F
:100BA800800108002E08033E840083170008003ADD
:100BB8000319302D013A0319522DE22D0800831232
:100BC80003132B08B1002C08B2002D08B300031042
:100BD800320D330DB4003408B5003508031DFB2D64
:100BE8000030AB000030AC000030AD0008002E082B
:100BF800B1002F08B2003008B3000310320D330DD6
:100C0800B4003408BA003A08031D112E0030AB00B6
:100C18000030AC000030AD0008003A087B3EB1005F
:100C28003108B5072B08B1002C08B2002D08B30015
:100C380010300310B30CB20CB10CFF3E031D1D2E77
:100C48003108B4003408BA002E08B1002F08B200E9
:100C58003008B30010300310B30CB20CB10CFF3ED7
:100C6800031D2F2E3108B4003408BA068030B100B5
:100C78003108BA05AC17AF17FF30AE05FF30AF0526
:100C88000030B0050030B6000030B7000030B800C2
:100C98000730B1003108B9002B1C602E2E08B607AA
:100CA8002F08031103182F0A031DB7073008031173
:100CB8000318300A031DB80701300310AD0CAC0C43
:100CC800AB0CFF3E031D612E01300310AE0DAF0DBE
:100CD800B00DFF3E031D692E0130B902031D502ED1
:100CE8000930B1003108B9002B1C882E2E08B60730
:100CF8002F08031103182F0A031DB7073008031123
:100D08000318300A031DB80701300310AD0CAC0CF2
:100D1800AB0CFF3E031D892E01300310B80CB70C35
:100D2800B60CFF3E031D912E0130B902031D782E2B
:100D38003608A0003708A1003808A2003508B1001D
:100D48003108A3003A08B2003208A4000A128A1532
:100D58006F24831203132008AB002108AC0022087B
:100D6800AD000800F500013083120313A1007508D7
:100D7800023E84008313000AC32E0310A10DFF3E18
:100D8800031DC12E2108A2002208F4007508840062
:100D98000008A100840A0008A20021088400831723
:100DA800221C831300087404A300750884008313AD
:100DB8000008A400840A0008A500240884008317FA
:100DC800251C8313230880000130A1007508053E07
:100DD80084008313000AF22E0310A10DFF3E031DA9
:100DE800F02E2108A2002208F4007508033E8400B2
:100DF8000008A100840A0008A200210884008317C3
:100E0800221C831300087404A3007508033E8400A1
:100E180083130008A400840A0008A500240884009D
:100E28008317251C8313230880000130A1002008A4
:100E3800023E84008313000A232F0310A10DFF3EF6
:100E4800031D212F2108A2002208F4002008840095
:100E58000008A100840A0008A20021088400831762
:100E6800221C831300087404A30020088400831341
:100E78000008A400840A0008A50024088400831739
:100E8800251C8313230880000130A1002008053E9B
:100E980084008313000A522F0310A10DFF3E031D87
:100EA800502F2108A2002208F4002008033E8400E5
:100EB8000008A100840A0008A20021088400831702
:100EC800221C831300087404A3002008033E840036
:100ED80083130008A400840A0008A50024088400DD
:100EE8008317251C8313230880007508063E840099
:100EF80083138001800A2008063E84008001800A4E
:100F0800080083120313A101A201A401A50124086A
:100F18002504031DB72F2408583E8400831380013D
:100F280024080A128A1543210A128A11831203130C
:100F3800A0002408233E840020088313800024088E
:100F4800233E840000082107A10022080318220A72
:100F5800A2000130A4070318A50A0030A507240839
:100F6800250403198F2F01300A128A1543210A120A
:100F78008A1183120313A0002008D70002300A1236
:100F88008A1543210A128A1183120313A00020082C
:100F9800D60022085706031DD32F21085606031D25
:100FA800F22FA401A50124082504031DF02F24080D
:100FB800233E840083130008A0002408583E8400C0
:100FC800200880000130A4070318A50A0030A507EF
:100FD800240825040319DB2F01300800003008001D
:100FE8000A128A1185270A128A11003A031D08007D
:080FF80083120313D801080065
:101140008316031337080800D034BD34AA3497340B
:10115000DD34D634CF34C83483160313B701831279
:1011600003139F140800831203130513831603133C
:10117000A00108008316031305138312031305133C
:101180000800831203131E08F4007408F5007508A4
:10119000080064008001840A040603190034040670
:1011A000CA2883120313A70027080319DD28D801D2
:1011B000D80A0A128A15FA22080083120313D801EA
:1011C0000A128A15FA2208008B1379088312031376
:1011D000A7007808A6007708A5007608A4008B175A
:1011E0002708A3002608A2002508A1002408A000C3
:1011F0000800831603138514831203131F08C339D1
:1012000004389F001F14831603130C178312031353
:101210000C1383160313B701831203139F140800E2
:10122000831203132808A0002908A100A2018E3010
:10123000F4007408A300A4010A128A156F24831213
:1012400003132008A8002108A9002208AA0008000A
:1012500083120313B000B1012F08310203180800F4
:1012600031083007F40074088400831300080A1260
:101270008A110A250A128A150130F40074088312B3
:101280000313B1072C29F5006400831603178C188B
:1012900044297508831203178D003F30F400740849
:1012A000831603178C050C1403100C18031400305C
:1012B00003180130831203170C080800831203136C
:1012C000051783160313A001A00A0A128A15E42049
:1012D00083120313230883160313A400831203133A
:1012E000220883160313A300831203132108831615
:1012F0000313A20083120313200883160313A10013
:101300000800F50183120313A91F8D29A809A90953
:10131000A80A0319A90AF501F50A2808A000290856
:10132000A100A2018E30AB002B08A3007508AC0011
:101330002C08A4000A128A156F24831203132008B4
:10134000A8002108A9002208AA0008000B1DB9293D
:101350000B110130F607003003180130F707003099
:1013600003180130F807003003180130F90709307D
:1013700081000C1FC0290C1383160313B701B70A91
:1013800073088312FF0072088A0071088400700ECF
:101390008300FE0E7E0E090083120313A000831645
:1013A00003178C18CF298312031320088312031705
:1013B0008D0074088C003F30F50075088316031704
:1013C0008C058312031303108B1B03148B138316DA
:1013D00003170C1555308D00AA308D008C140C119C
:1013E00083120313031C08008B17080083120313D6
:1013F000CB004A08A1004908A000E830A200033051
:10140000A3000A128A156D220A128A158312031389
:101410004B08033E8400200883138000840A2108BF
:1014200080004B08093E84008001BB014B080A1272
:101430008A15F0250A128A150A128A15E4208312E9
:1014400003134B080A3E8400200883138000840A9B
:1014500021088000840A22088000840A2308800072
:10146000080083120313CA004A080319632A83166B
:1014700003132E0883120313C9004908BB00B830B8
:101480000A128A15F0250A128A150A128A15E42012
:1014900083120313230883160313A9008312031373
:1014A000220883160313A80083120313210883164E
:1014B0000313A70083120313200883160313A60047
:1014C000A501A50A08008312BB01B8300A128A15CB
:1014D000F02583160313A501080083120313A50149
:1014E000A601200821040319A62AA401A40AA11B0D
:1014F000852A01300310A00DA10DFF3E031D7A2A9D
:101500000130F4007408A407772A01300310A50DF8
:10151000A60DFF3E031D862A21082302031D922AE1
:1015200020082202031C9B2A2008A2022108031C77
:10153000A303A302251401300310A10CA00CFF3E4D
:10154000031D9C2A0130A402031D852A2608A10040
:101550002508A000080083120313A5000130A00095
:101560002508023E84008317000AB82A0310A00D44
:10157000FF3E031DB62A2008A1002108A30025086C
:1015800084000008A000840A0008A100200884004C
:101590008317211C831300082305A2002208A4003E
:1015A0002508033E8400831780012408A000250835
:1015B000083E84002008800004302507A000200891
:1015C00084008001840A8001840A8001840A8001E9
:1015D0002508093E8400800124080319F52A2508FE
:1015E0000A3E84008001800A080025080A3E840023
:1015F0008001080083120313A201A301A501A60123
:1016000025082604031D322B2508583E8400831329
:101610000008A1002508243E840021088000250838
:10162000243E840000082207A20023080318230A8E
:10163000A3002508243E84000008A1002108F4002E
:1016400025080A128A15CC210A128A150130831244
:101650000313A5070318A60A0030A60725082604C9
:101660000319042B2308D7002208D6005708A1002D
:101670002108F40001300A128A15CC210A128A15B9
:10168000831203135608A1002108F40002300A1245
:101690008A15CC21080083120313A501A11F572B23
:1016A000A009A109A00A0319A10AA501A50AA31F5F
:1016B000622BA209A309A20A0319A30A0130F400AC
:1016C0007408A506A601A701200821040319992B77
:1016D000A401A40AA11B782B01300310A00DA10DB9
:1016E000FF3E031D6D2B0130F4007408A4076A2B24
:1016F00001300310A60DA70DFF3E031D792B210815
:101700002302031D852B20082202031C8E2B200898
:10171000A2022108031CA303A30226140130031014
:10172000A10CA00CFF3E031D8F2B0130A402031D52
:10173000782B25080319A12BA609A709A60A0319C6
:10174000A70A2708A1002608A00008008316031393
:1017500095131513003083160317D1000630D000FF
:10176000D2018316031306141514003083160317D1
:10177000BE000630BD00BF01BF0A831603138614E6
:101780009514003083160317AB000630AA00023010
:10179000F4007408AC008316031306151515003009
:1017A000831603179800063097000330F40074087E
:1017B0009900831603138615951581130D30F500D6
:1017C000FB30F400F40BE22BF50BE22BE72BD030CF
:1017D0000A128A15AB220A128A15BD300A128A151E
:1017E000AB220A128A15AA300A128A15AB220A12F3
:1017F0008A1597300A128A15AB226430F4007408F7
:1018000083160313AE000800F500013083120313A2
:10181000A0007508023E84008313000A112C0310F7
:10182000A00DFF3E031D0F2C2008FF3AA100210848
:10183000F400750884000008A000840A0008A100D4
:10184000200884008317211C831300087405A2005C
:101850007508840083130008A300840A0008A4000C
:10186000230884008317241C83132208800001307E
:10187000A0007508053E84008313000A412C031064
:10188000A00DFF3E031D3F2C2008FF3AA1002108B8
:10189000F4007508033E84000008A000840A0008D4
:1018A000A100200884008317211C831300087405FD
:1018B000A2007508033E840083130008A300840A75
:1018C0000008A400230884008317241C8313220823
:1018D00080007508063E840083138001080083128F
:1018E000031323080319792C220821042004031D63
:1018F0008C2C0030A0000030A1000030A2000800B5
:101900000130A5002508A30701300310A20CA10C8B
:10191000A00CFF3E031D852CFE3022050319A72CC9
:10192000802C0130A5002508A3070130A007003056
:1019300003180130A107003003180130A20701305D
:101940000310A20CA10CA00CFF3E031DA02CFF3025
:1019500022050319B62C912C0130A302013003108B
:10196000A00DA10DA20DFF3E031DAF2CA11BBC2C91
:10197000023023020318AC2C2318C42CFF30A0051E
:101980007F30A105FF30A2050310A30C2308A5009A
:10199000A601A70110300310A50DA60DA70DFF3E4F
:1019A000031DCB2C2508A0042608A1042708A204A7
:1019B000240803190800A2170800F500013083125B
:1019C0000313A8007508023E84008313000AEA2C62
:1019D0000310A80DFF3E031DE82C2808A9002908C4
:1019E000F400750884000008A800840A0008A90013
:1019F000280884008317291C831300087404AA0094
:101A00007508840083130008AB00840A0008AC004A
:101A10002B08840083172C1C83132A0880000130B4
:101A2000A8007508053E84008313000A192D0310D1
:101A3000A80DFF3E031D172D2808A9002908F40052
:101A40007508033E84000008A800840A0008A90065
:101A5000280884008317291C831300087404AA0033
:101A60007508033E840083130008AB00840A000855
:101A7000AC002B08840083172C1C83132A088000D9
:101A80007508063E840083138001800A0A128A15B5
:101A9000E42083120313230883160313AD0083127B
:101AA0000313220883160313AC00831203132108C7
:101AB00083160313AB00831203132008831603134A
:101AC000AA000800831203132008A4002108A5001F
:101AD0002208A6000310250D260DA7002708AD003B
:101AE0002D08031D7C2D0030A3000030A200003023
:101AF000A1000030A00008002008A4002108A500D3
:101B00002208A60017300310A60CA50CA40CFF3E5B
:101B1000031D832D2408A7002708A800A117FF3064
:101B2000A005FF30A1050030A2052008A90021086A
:101B3000AA002208AB00AC018E30AD02AD1FBE2D55
:101B40002D08803A8F3E0318AE2D0030A3000030E0
:101B5000A2000030A1000030A000080001300310F6
:101B6000AC0CAB0CAA0CA90CFF3E031DAF2D013031
:101B7000A4002408AD070319D92DAE2D18302D026D
:101B8000031CD62D0030A3000030A2000030A100BD
:101B90000030A00008000130A4000310A90DAA0D18
:101BA000AB0DAC0DA40BCD2D0130AD022D08031DE6
:101BB000CB2D28080319E72DA909AA09AB09AC09FF
:101BC000A90A0319AA0A0319AB0A0319AC0A2C08BB
:101BD000A3002B08A2002A08A1002908A0000800E1
:101BE00083120313C8003B08BC004808093E840068
:101BF0003C08831380006430A0000030A1003B0843
:101C0000BC00BD013C08A2003D08A3000A128A15D1
:101C10004B230A128A15831203132108A9002008F6
:101C2000A8000A128A1581210A128A158312031349
:101C30002808C2002908C3002A08C4004208AB00D3
:101C40004308AC004408AD004808033E84008313F9
:101C50000008A800840A0008A9000A128A151021A9
:101C60000A128A15831203132808AE002908AF0050
:101C70002A08B0000A128A11E3250A128A15831273
:101C800003132B08C5002C08C6002D08C700450803
:101C9000A0004608A1004708A2000A128A15622582
:101CA0000A128A15831203134808053E840020088F
:101CB00083138000840A210880004808033E8400C2
:101CC0000008BC00840A0008BD004808053E8400E6
:101CD0000008BE00840A0008BF00BE09BF09BE0A92
:101CE0000319BF0A3C083E07C0003D0803183D0A1F
:101CF0003F07C1004808073E840040088000840A6E
:101D00004108800048080E3E84008001800A0800D7
:101D1000831603138512851105110613071087100A
:101D200007118711851383120313851385128511FB
:101D3000051106130710871007118711003083164D
:101D40000313DE000530DD00053083120313CC00E1
:101D50004C0883160313DF000030E1000730E00079
:101D6000E201E3010030D7000530D60003308312D2
:101D70000313CC004C0883160313D8000030DA009C
:101D80000730D900DB01DB0ADC010030D000053070
:101D9000CF00023083120313CC004C0883160313C8
:101DA000D1000030D3000730D20002308312031379
:101DB000CC004C0883160313D400D5010030C900B1
:101DC0000630C800063083120313CC004C0883167B
:101DD0000313CA000030CC000730CB00033083125D
:101DE0000313CC004C0883160313CD00CE01003042
:101DF00083160317940005309300073083120313F2
:101E0000CC004C088316031795000030831603138B
:101E1000B9000530B800073083120313CC004C081A
:101E200083160313BA00323083120313C900003043
:101E3000CA00B8300A128A15F62183160313B601B8
:101E4000B101643083120313CC004C0883160313D2
:101E5000AF00643083120313CC004C0883160313C5
:101E6000B000643083120313CC004C0883160313B4
:101E7000AE000800F5007508063E840083130008D4
:101E80000319642F013083120313A0007508023E6A
:101E90008400000A4D2F0310A00DFF3E031D4B2FA1
:101EA0002008FF3AA1002108F4007508840000080A
:101EB000A000840A0008A100200884008317211CC8
:101EC000831300087405852F013083120313A000CB
:101ED0007508023E84008313000A702F0310A00DC2
:101EE000FF3E031D6E2F2008A1002108F400750895
:101EF00084000008A000840A0008A10020088400D3
:101F00008317211C831300087404A2007508840041
:101F100083130008A300840A0008A4002308840097
:101F20008317241C8313220880007508063E840052
:101F3000831300080319BD2F0130A0007508053E6A
:101F40008400000AA52F0310A00DFF3E031DA32F40
:101F50002008FF3AA1002108F4007508033E840020
:101F60000008A000840A0008A1002008840083174C
:101F7000211C831300087405DD2F0130A0007508B3
:101F8000053E84008313000AC72F0310A00DFF3EF7
:101F9000031DC52F2008A1002108F4007508033E89
:101FA00084000008A000840A0008A1002008840022
:101FB0008317211C831300087404A2007508033ED4
:101FC000840083130008A300840A0008A4002308E7
:101FD00084008317241C8313220880007508063EA2
:101FE0008400831300080319FA2F7508063E840045
:101FF000800108007508063E84008001800A080000
:04400E00F4E0FFFFDC
:104200000000010002000300040005000600070092
:00000001FF
